{
  "contractName": "TokenFarm",
  "abi": [
    {
      "inputs": [
        {
          "internalType": "contract DappToken",
          "name": "_dappToken",
          "type": "address"
        },
        {
          "internalType": "contract DaiToken",
          "name": "_daiToken",
          "type": "address"
        }
      ],
      "stateMutability": "nonpayable",
      "type": "constructor"
    },
    {
      "inputs": [],
      "name": "daiToken",
      "outputs": [
        {
          "internalType": "contract DaiToken",
          "name": "",
          "type": "address"
        }
      ],
      "stateMutability": "view",
      "type": "function",
      "constant": true
    },
    {
      "inputs": [],
      "name": "dappToken",
      "outputs": [
        {
          "internalType": "contract DappToken",
          "name": "",
          "type": "address"
        }
      ],
      "stateMutability": "view",
      "type": "function",
      "constant": true
    },
    {
      "inputs": [
        {
          "internalType": "address",
          "name": "",
          "type": "address"
        }
      ],
      "name": "hasStaked",
      "outputs": [
        {
          "internalType": "bool",
          "name": "",
          "type": "bool"
        }
      ],
      "stateMutability": "view",
      "type": "function",
      "constant": true
    },
    {
      "inputs": [
        {
          "internalType": "address",
          "name": "",
          "type": "address"
        }
      ],
      "name": "isStaking",
      "outputs": [
        {
          "internalType": "bool",
          "name": "",
          "type": "bool"
        }
      ],
      "stateMutability": "view",
      "type": "function",
      "constant": true
    },
    {
      "inputs": [],
      "name": "name",
      "outputs": [
        {
          "internalType": "string",
          "name": "",
          "type": "string"
        }
      ],
      "stateMutability": "view",
      "type": "function",
      "constant": true
    },
    {
      "inputs": [
        {
          "internalType": "uint256",
          "name": "",
          "type": "uint256"
        }
      ],
      "name": "stakers",
      "outputs": [
        {
          "internalType": "address",
          "name": "",
          "type": "address"
        }
      ],
      "stateMutability": "view",
      "type": "function",
      "constant": true
    },
    {
      "inputs": [
        {
          "internalType": "address",
          "name": "",
          "type": "address"
        }
      ],
      "name": "stakingBalance",
      "outputs": [
        {
          "internalType": "uint256",
          "name": "",
          "type": "uint256"
        }
      ],
      "stateMutability": "view",
      "type": "function",
      "constant": true
    },
    {
      "inputs": [
        {
          "internalType": "uint256",
          "name": "_amount",
          "type": "uint256"
        }
      ],
      "name": "stakeToken",
      "outputs": [],
      "stateMutability": "nonpayable",
      "type": "function"
    }
  ],
  "bytecode": "0x60806040526040518060400160405280600f81526020017f4461707020546f6b656e204661726d000000000000000000000000000000000081525060009080519060200190620000519291906200010f565b503480156200005f57600080fd5b5060405162000da538038062000da5833981810160405281019062000085919062000282565b80600160006101000a81548173ffffffffffffffffffffffffffffffffffffffff021916908373ffffffffffffffffffffffffffffffffffffffff16021790555081600260006101000a81548173ffffffffffffffffffffffffffffffffffffffff021916908373ffffffffffffffffffffffffffffffffffffffff16021790555050506200032e565b8280546200011d90620002f8565b90600052602060002090601f0160209004810192826200014157600085556200018d565b82601f106200015c57805160ff19168380011785556200018d565b828001600101855582156200018d579182015b828111156200018c5782518255916020019190600101906200016f565b5b5090506200019c9190620001a0565b5090565b5b80821115620001bb576000816000905550600101620001a1565b5090565b600080fd5b600073ffffffffffffffffffffffffffffffffffffffff82169050919050565b6000620001f182620001c4565b9050919050565b60006200020582620001e4565b9050919050565b6200021781620001f8565b81146200022357600080fd5b50565b60008151905062000237816200020c565b92915050565b60006200024a82620001e4565b9050919050565b6200025c816200023d565b81146200026857600080fd5b50565b6000815190506200027c8162000251565b92915050565b600080604083850312156200029c576200029b620001bf565b5b6000620002ac8582860162000226565b9250506020620002bf858286016200026b565b9150509250929050565b7f4e487b7100000000000000000000000000000000000000000000000000000000600052602260045260246000fd5b600060028204905060018216806200031157607f821691505b60208210811415620003285762000327620002c9565b5b50919050565b610a67806200033e6000396000f3fe608060405234801561001057600080fd5b50600436106100885760003560e01c8063be22f5461161005b578063be22f54614610129578063c93c8f3414610147578063cda6b84714610177578063fd5e6dd11461019357610088565b806306fdde031461008d57806345bc78ab146100ab5780635eb186f8146100db5780636f49712b146100f9575b600080fd5b6100956101c3565b6040516100a29190610666565b60405180910390f35b6100c560048036038101906100c091906106eb565b610251565b6040516100d29190610731565b60405180910390f35b6100e3610269565b6040516100f091906107ab565b60405180910390f35b610113600480360381019061010e91906106eb565b61028f565b60405161012091906107e1565b60405180910390f35b6101316102af565b60405161013e919061081d565b60405180910390f35b610161600480360381019061015c91906106eb565b6102d5565b60405161016e91906107e1565b60405180910390f35b610191600480360381019061018c9190610864565b6102f5565b005b6101ad60048036038101906101a89190610864565b61058e565b6040516101ba91906108a0565b60405180910390f35b600080546101d0906108ea565b80601f01602080910402602001604051908101604052809291908181526020018280546101fc906108ea565b80156102495780601f1061021e57610100808354040283529160200191610249565b820191906000526020600020905b81548152906001019060200180831161022c57829003601f168201915b505050505081565b60046020528060005260406000206000915090505481565b600260009054906101000a900473ffffffffffffffffffffffffffffffffffffffff1681565b60066020528060005260406000206000915054906101000a900460ff1681565b600160009054906101000a900473ffffffffffffffffffffffffffffffffffffffff1681565b60056020528060005260406000206000915054906101000a900460ff1681565b600160009054906101000a900473ffffffffffffffffffffffffffffffffffffffff1673ffffffffffffffffffffffffffffffffffffffff166323b872dd3330846040518463ffffffff1660e01b81526004016103549392919061091c565b6020604051808303816000875af1158015610373573d6000803e3d6000fd5b505050506040513d601f19601f82011682018060405250810190610397919061097f565b5080600460003373ffffffffffffffffffffffffffffffffffffffff1673ffffffffffffffffffffffffffffffffffffffff168152602001908152602001600020546103e391906109db565b600460003373ffffffffffffffffffffffffffffffffffffffff1673ffffffffffffffffffffffffffffffffffffffff16815260200190815260200160002081905550600560003373ffffffffffffffffffffffffffffffffffffffff1673ffffffffffffffffffffffffffffffffffffffff16815260200190815260200160002060009054906101000a900460ff166104db576003339080600181540180825580915050600190039060005260206000200160009091909190916101000a81548173ffffffffffffffffffffffffffffffffffffffff021916908373ffffffffffffffffffffffffffffffffffffffff1602179055505b6001600660003373ffffffffffffffffffffffffffffffffffffffff1673ffffffffffffffffffffffffffffffffffffffff16815260200190815260200160002060006101000a81548160ff0219169083151502179055506001600560003373ffffffffffffffffffffffffffffffffffffffff1673ffffffffffffffffffffffffffffffffffffffff16815260200190815260200160002060006101000a81548160ff02191690831515021790555050565b6003818154811061059e57600080fd5b906000526020600020016000915054906101000a900473ffffffffffffffffffffffffffffffffffffffff1681565b600081519050919050565b600082825260208201905092915050565b60005b838110156106075780820151818401526020810190506105ec565b83811115610616576000848401525b50505050565b6000601f19601f8301169050919050565b6000610638826105cd565b61064281856105d8565b93506106528185602086016105e9565b61065b8161061c565b840191505092915050565b60006020820190508181036000830152610680818461062d565b905092915050565b600080fd5b600073ffffffffffffffffffffffffffffffffffffffff82169050919050565b60006106b88261068d565b9050919050565b6106c8816106ad565b81146106d357600080fd5b50565b6000813590506106e5816106bf565b92915050565b60006020828403121561070157610700610688565b5b600061070f848285016106d6565b91505092915050565b6000819050919050565b61072b81610718565b82525050565b60006020820190506107466000830184610722565b92915050565b6000819050919050565b600061077161076c6107678461068d565b61074c565b61068d565b9050919050565b600061078382610756565b9050919050565b600061079582610778565b9050919050565b6107a58161078a565b82525050565b60006020820190506107c0600083018461079c565b92915050565b60008115159050919050565b6107db816107c6565b82525050565b60006020820190506107f660008301846107d2565b92915050565b600061080782610778565b9050919050565b610817816107fc565b82525050565b6000602082019050610832600083018461080e565b92915050565b61084181610718565b811461084c57600080fd5b50565b60008135905061085e81610838565b92915050565b60006020828403121561087a57610879610688565b5b60006108888482850161084f565b91505092915050565b61089a816106ad565b82525050565b60006020820190506108b56000830184610891565b92915050565b7f4e487b7100000000000000000000000000000000000000000000000000000000600052602260045260246000fd5b6000600282049050600182168061090257607f821691505b60208210811415610916576109156108bb565b5b50919050565b60006060820190506109316000830186610891565b61093e6020830185610891565b61094b6040830184610722565b949350505050565b61095c816107c6565b811461096757600080fd5b50565b60008151905061097981610953565b92915050565b60006020828403121561099557610994610688565b5b60006109a38482850161096a565b91505092915050565b7f4e487b7100000000000000000000000000000000000000000000000000000000600052601160045260246000fd5b60006109e682610718565b91506109f183610718565b9250827fffffffffffffffffffffffffffffffffffffffffffffffffffffffffffffffff03821115610a2657610a256109ac565b5b82820190509291505056fea26469706673582212202a1d5f1e9a818612aa438a99c522cc3b0f74d5a44d3b3c09c24ac95752843b6264736f6c634300080a0033",
  "immutableReferences": {},
  "source": "// SPDX-License-Identifier: MIT\npragma solidity ^0.8.0;\n\nimport \"./DaiToken.sol\";\nimport \"./DappToken.sol\";\n\ncontract TokenFarm {\n    string public name = \"Dapp Token Farm\";\n    DaiToken public daiToken;\n    DappToken public dappToken;\n\n    address[] public stakers;\n    mapping(address => uint) public stakingBalance;\n    mapping(address => bool) public hasStaked;\n    mapping(address => bool) public isStaking;\n\n    constructor(DappToken _dappToken, DaiToken _daiToken) {\n        daiToken =_daiToken;\n        dappToken = _dappToken; \n    }\n\n    function stakeToken(uint _amount) public {\n        daiToken.transferFrom(msg.sender, address(this), _amount);\n\n        stakingBalance[msg.sender] = stakingBalance[msg.sender] + _amount;\n        if(!hasStaked[msg.sender]){\n            stakers.push(msg.sender);\n        }\n        isStaking[msg.sender] = true;\n        hasStaked[msg.sender] = true;\n    }\n}",
  "sourcePath": "/Users/laoye_jnr/Documents/Dapp's/Token-Farm-DeFi-/contracts/TokenFarm.sol",
  "compiler": {
    "name": "solc",
    "version": "0.8.10+commit.fc410830.Emscripten.clang"
  },
  "schemaVersion": "3.4.3",
  "updatedAt": "2021-11-29T13:23:43.407Z",
  "networkType": "ethereum",
  "devdoc": {
    "kind": "dev",
    "methods": {},
    "version": 1
  },
  "userdoc": {
    "kind": "user",
    "methods": {},
    "version": 1
  }
}